{
  "contractName": "FAlchemistV2",
  "abi": [
    {
      "inputs": [
        {
          "internalType": "address",
          "name": "_token",
          "type": "address"
        }
      ],
      "stateMutability": "nonpayable",
      "type": "constructor"
    },
    {
      "anonymous": false,
      "inputs": [
        {
          "indexed": true,
          "internalType": "address",
          "name": "owner",
          "type": "address"
        },
        {
          "indexed": true,
          "internalType": "address",
          "name": "spender",
          "type": "address"
        },
        {
          "indexed": false,
          "internalType": "uint256",
          "name": "value",
          "type": "uint256"
        }
      ],
      "name": "Approval",
      "type": "event"
    },
    {
      "anonymous": false,
      "inputs": [
        {
          "indexed": true,
          "internalType": "address",
          "name": "from",
          "type": "address"
        },
        {
          "indexed": true,
          "internalType": "address",
          "name": "to",
          "type": "address"
        },
        {
          "indexed": false,
          "internalType": "uint256",
          "name": "value",
          "type": "uint256"
        }
      ],
      "name": "Transfer",
      "type": "event"
    },
    {
      "anonymous": false,
      "inputs": [
        {
          "indexed": false,
          "internalType": "address",
          "name": "",
          "type": "address"
        }
      ],
      "name": "craftDebt",
      "type": "event"
    },
    {
      "inputs": [
        {
          "internalType": "address",
          "name": "owner",
          "type": "address"
        },
        {
          "internalType": "address",
          "name": "spender",
          "type": "address"
        }
      ],
      "name": "allowance",
      "outputs": [
        {
          "internalType": "uint256",
          "name": "",
          "type": "uint256"
        }
      ],
      "stateMutability": "view",
      "type": "function",
      "constant": true
    },
    {
      "inputs": [
        {
          "internalType": "address",
          "name": "spender",
          "type": "address"
        },
        {
          "internalType": "uint256",
          "name": "amount",
          "type": "uint256"
        }
      ],
      "name": "approve",
      "outputs": [
        {
          "internalType": "bool",
          "name": "",
          "type": "bool"
        }
      ],
      "stateMutability": "nonpayable",
      "type": "function"
    },
    {
      "inputs": [
        {
          "internalType": "address",
          "name": "account",
          "type": "address"
        }
      ],
      "name": "balanceOf",
      "outputs": [
        {
          "internalType": "uint256",
          "name": "",
          "type": "uint256"
        }
      ],
      "stateMutability": "view",
      "type": "function",
      "constant": true
    },
    {
      "inputs": [],
      "name": "decimals",
      "outputs": [
        {
          "internalType": "uint8",
          "name": "",
          "type": "uint8"
        }
      ],
      "stateMutability": "view",
      "type": "function",
      "constant": true
    },
    {
      "inputs": [
        {
          "internalType": "address",
          "name": "spender",
          "type": "address"
        },
        {
          "internalType": "uint256",
          "name": "subtractedValue",
          "type": "uint256"
        }
      ],
      "name": "decreaseAllowance",
      "outputs": [
        {
          "internalType": "bool",
          "name": "",
          "type": "bool"
        }
      ],
      "stateMutability": "nonpayable",
      "type": "function"
    },
    {
      "inputs": [
        {
          "internalType": "address",
          "name": "spender",
          "type": "address"
        },
        {
          "internalType": "uint256",
          "name": "addedValue",
          "type": "uint256"
        }
      ],
      "name": "increaseAllowance",
      "outputs": [
        {
          "internalType": "bool",
          "name": "",
          "type": "bool"
        }
      ],
      "stateMutability": "nonpayable",
      "type": "function"
    },
    {
      "inputs": [],
      "name": "name",
      "outputs": [
        {
          "internalType": "string",
          "name": "",
          "type": "string"
        }
      ],
      "stateMutability": "view",
      "type": "function",
      "constant": true
    },
    {
      "inputs": [],
      "name": "symbol",
      "outputs": [
        {
          "internalType": "string",
          "name": "",
          "type": "string"
        }
      ],
      "stateMutability": "view",
      "type": "function",
      "constant": true
    },
    {
      "inputs": [],
      "name": "token",
      "outputs": [
        {
          "internalType": "address",
          "name": "",
          "type": "address"
        }
      ],
      "stateMutability": "view",
      "type": "function",
      "constant": true
    },
    {
      "inputs": [],
      "name": "totalSupply",
      "outputs": [
        {
          "internalType": "uint256",
          "name": "",
          "type": "uint256"
        }
      ],
      "stateMutability": "view",
      "type": "function",
      "constant": true
    },
    {
      "inputs": [
        {
          "internalType": "address",
          "name": "to",
          "type": "address"
        },
        {
          "internalType": "uint256",
          "name": "amount",
          "type": "uint256"
        }
      ],
      "name": "transfer",
      "outputs": [
        {
          "internalType": "bool",
          "name": "",
          "type": "bool"
        }
      ],
      "stateMutability": "nonpayable",
      "type": "function"
    },
    {
      "inputs": [
        {
          "internalType": "address",
          "name": "from",
          "type": "address"
        },
        {
          "internalType": "address",
          "name": "to",
          "type": "address"
        },
        {
          "internalType": "uint256",
          "name": "amount",
          "type": "uint256"
        }
      ],
      "name": "transferFrom",
      "outputs": [
        {
          "internalType": "bool",
          "name": "",
          "type": "bool"
        }
      ],
      "stateMutability": "nonpayable",
      "type": "function"
    },
    {
      "inputs": [
        {
          "internalType": "address",
          "name": "owner",
          "type": "address"
        }
      ],
      "name": "get_accounts",
      "outputs": [
        {
          "internalType": "uint256",
          "name": "balance",
          "type": "uint256"
        },
        {
          "internalType": "uint256",
          "name": "debt",
          "type": "uint256"
        }
      ],
      "stateMutability": "view",
      "type": "function",
      "constant": true
    },
    {
      "inputs": [
        {
          "internalType": "uint256",
          "name": "amount",
          "type": "uint256"
        },
        {
          "internalType": "address",
          "name": "owner",
          "type": "address"
        }
      ],
      "name": "deposit",
      "outputs": [],
      "stateMutability": "nonpayable",
      "type": "function"
    },
    {
      "inputs": [
        {
          "internalType": "uint256",
          "name": "amount",
          "type": "uint256"
        }
      ],
      "name": "craft_debt",
      "outputs": [
        {
          "internalType": "uint256",
          "name": "",
          "type": "uint256"
        }
      ],
      "stateMutability": "nonpayable",
      "type": "function"
    },
    {
      "inputs": [
        {
          "internalType": "uint256",
          "name": "amount",
          "type": "uint256"
        }
      ],
      "name": "update",
      "outputs": [],
      "stateMutability": "nonpayable",
      "type": "function"
    },
    {
      "inputs": [],
      "name": "liquidate",
      "outputs": [
        {
          "internalType": "uint256",
          "name": "sharesLiquidated",
          "type": "uint256"
        }
      ],
      "stateMutability": "nonpayable",
      "type": "function"
    }
  ],
  "bytecode": "0x60806040523480156200001157600080fd5b5060405162002add38038062002add8339818101604052810190620000379190620001d7565b6040518060400160405280600281526020017f59540000000000000000000000000000000000000000000000000000000000008152506040518060400160405280600b81526020017f7965696c6420746f6b656e0000000000000000000000000000000000000000008152508160039081620000b4919062000483565b508060049081620000c6919062000483565b50505080600560006101000a81548173ffffffffffffffffffffffffffffffffffffffff021916908373ffffffffffffffffffffffffffffffffffffffff1602179055506000600660146101000a81548160ff02191690831515021790555033600660006101000a81548173ffffffffffffffffffffffffffffffffffffffff021916908373ffffffffffffffffffffffffffffffffffffffff160217905550506200056a565b600080fd5b600073ffffffffffffffffffffffffffffffffffffffff82169050919050565b60006200019f8262000172565b9050919050565b620001b18162000192565b8114620001bd57600080fd5b50565b600081519050620001d181620001a6565b92915050565b600060208284031215620001f057620001ef6200016d565b5b60006200020084828501620001c0565b91505092915050565b600081519050919050565b7f4e487b7100000000000000000000000000000000000000000000000000000000600052604160045260246000fd5b7f4e487b7100000000000000000000000000000000000000000000000000000000600052602260045260246000fd5b600060028204905060018216806200028b57607f821691505b602082108103620002a157620002a062000243565b5b50919050565b60008190508160005260206000209050919050565b60006020601f8301049050919050565b600082821b905092915050565b6000600883026200030b7fffffffffffffffffffffffffffffffffffffffffffffffffffffffffffffffff82620002cc565b620003178683620002cc565b95508019841693508086168417925050509392505050565b6000819050919050565b6000819050919050565b6000620003646200035e62000358846200032f565b62000339565b6200032f565b9050919050565b6000819050919050565b620003808362000343565b620003986200038f826200036b565b848454620002d9565b825550505050565b600090565b620003af620003a0565b620003bc81848462000375565b505050565b5b81811015620003e457620003d8600082620003a5565b600181019050620003c2565b5050565b601f8211156200043357620003fd81620002a7565b6200040884620002bc565b8101602085101562000418578190505b620004306200042785620002bc565b830182620003c1565b50505b505050565b600082821c905092915050565b6000620004586000198460080262000438565b1980831691505092915050565b600062000473838362000445565b9150826002028217905092915050565b6200048e8262000209565b67ffffffffffffffff811115620004aa57620004a962000214565b5b620004b6825462000272565b620004c3828285620003e8565b600060209050601f831160018114620004fb5760008415620004e6578287015190505b620004f2858262000465565b86555062000562565b601f1984166200050b86620002a7565b60005b8281101562000535578489015182556001820191506020850194506020810190506200050e565b8683101562000555578489015162000551601f89168262000445565b8355505b6001600288020188555050505b505050505050565b612563806200057a6000396000f3fe608060405234801561001057600080fd5b506004361061010b5760003560e01c80636e553f65116100a2578063a457c2d711610071578063a457c2d7146102ce578063a9059cbb146102fe578063dcb835261461032e578063dd62ed3e1461035f578063fc0c546a1461038f5761010b565b80636e553f651461024857806370a082311461026457806382ab890a1461029457806395d89b41146102b05761010b565b806328a07025116100de57806328a07025146101ac578063313ce567146101ca57806339509351146101e85780634256612b146102185761010b565b806306fdde0314610110578063095ea7b31461012e57806318160ddd1461015e57806323b872dd1461017c575b600080fd5b6101186103ad565b6040516101259190611908565b60405180910390f35b610148600480360381019061014391906119c3565b61043f565b6040516101559190611a1e565b60405180910390f35b610166610462565b6040516101739190611a48565b60405180910390f35b61019660048036038101906101919190611a63565b61046c565b6040516101a39190611a1e565b60405180910390f35b6101b461049b565b6040516101c19190611a48565b60405180910390f35b6101d26107a4565b6040516101df9190611ad2565b60405180910390f35b61020260048036038101906101fd91906119c3565b6107ad565b60405161020f9190611a1e565b60405180910390f35b610232600480360381019061022d9190611aed565b6107e4565b60405161023f9190611a48565b60405180910390f35b610262600480360381019061025d9190611b1a565b610aaf565b005b61027e60048036038101906102799190611b5a565b610c57565b60405161028b9190611a48565b60405180910390f35b6102ae60048036038101906102a99190611aed565b610c9f565b005b6102b8610e2a565b6040516102c59190611908565b60405180910390f35b6102e860048036038101906102e391906119c3565b610ebc565b6040516102f59190611a1e565b60405180910390f35b610318600480360381019061031391906119c3565b610f33565b6040516103259190611a1e565b60405180910390f35b61034860048036038101906103439190611b5a565b610f56565b604051610356929190611b87565b60405180910390f35b61037960048036038101906103749190611bb0565b610fb0565b6040516103869190611a48565b60405180910390f35b610397611037565b6040516103a49190611bff565b60405180910390f35b6060600380546103bc90611c49565b80601f01602080910402602001604051908101604052809291908181526020018280546103e890611c49565b80156104355780601f1061040a57610100808354040283529160200191610435565b820191906000526020600020905b81548152906001019060200180831161041857829003601f168201915b5050505050905090565b60008061044a61105d565b9050610457818585611065565b600191505092915050565b6000600254905090565b60008061047761105d565b905061048485828561122e565b61048f8585856112ba565b60019150509392505050565b600080600760003373ffffffffffffffffffffffffffffffffffffffff1673ffffffffffffffffffffffffffffffffffffffff16815260200190815260200160002060010154905060006001826104f0610462565b6104fa9190611ca9565b6105049190611d0c565b600760003373ffffffffffffffffffffffffffffffffffffffff1673ffffffffffffffffffffffffffffffffffffffff168152602001908152602001600020600001546002846105549190611d3d565b61055e9190611ca9565b6105689190611d97565b116105a8576040517f08c379a000000000000000000000000000000000000000000000000000000000815260040161059f90611e17565b60405180910390fd5b600660149054906101000a900460ff166107a0576001600660146101000a81548160ff02191690831515021790555060006001826105e4610462565b6105ee9190611ca9565b6105f89190611d0c565b600760003373ffffffffffffffffffffffffffffffffffffffff1673ffffffffffffffffffffffffffffffffffffffff168152602001908152602001600020600001546002846106489190611d3d565b6106529190611ca9565b61065c9190611d97565b9050600560009054906101000a900473ffffffffffffffffffffffffffffffffffffffff1673ffffffffffffffffffffffffffffffffffffffff166323b872dd3033846040518463ffffffff1660e01b81526004016106bd93929190611e37565b6020604051808303816000875af11580156106dc573d6000803e3d6000fd5b505050506040513d601f19601f820116820180604052508101906107009190611e9a565b5061070b3082611539565b8092506000600760003373ffffffffffffffffffffffffffffffffffffffff1673ffffffffffffffffffffffffffffffffffffffff168152602001908152602001600020600101819055506000600760003373ffffffffffffffffffffffffffffffffffffffff1673ffffffffffffffffffffffffffffffffffffffff16815260200190815260200160002060000181905550505b5090565b60006012905090565b6000806107b861105d565b90506107d98185856107ca8589610fb0565b6107d49190611d97565b611065565b600191505092915050565b600080600760003373ffffffffffffffffffffffffffffffffffffffff1673ffffffffffffffffffffffffffffffffffffffff168152602001908152602001600020600101541161086a576040517f08c379a000000000000000000000000000000000000000000000000000000000815260040161086190611f39565b60405180910390fd5b600660149054906101000a900460ff16610a65576001600660146101000a81548160ff021916908315150217905550600560009054906101000a900473ffffffffffffffffffffffffffffffffffffffff1673ffffffffffffffffffffffffffffffffffffffff166323b872dd3033856040518463ffffffff1660e01b81526004016108f893929190611e37565b6020604051808303816000875af1158015610917573d6000803e3d6000fd5b505050506040513d601f19601f8201168201806040525081019061093b9190611e9a565b5081600760003373ffffffffffffffffffffffffffffffffffffffff1673ffffffffffffffffffffffffffffffffffffffff1681526020019081526020016000206000015461098a9190611d97565b600760003373ffffffffffffffffffffffffffffffffffffffff1673ffffffffffffffffffffffffffffffffffffffff1681526020019081526020016000206000018190555081600760003373ffffffffffffffffffffffffffffffffffffffff1673ffffffffffffffffffffffffffffffffffffffff16815260200190815260200160002060010154610a1e9190611ca9565b600760003373ffffffffffffffffffffffffffffffffffffffff1673ffffffffffffffffffffffffffffffffffffffff168152602001908152602001600020600101819055505b600760003373ffffffffffffffffffffffffffffffffffffffff1673ffffffffffffffffffffffffffffffffffffffff168152602001908152602001600020600001549050919050565b600660149054906101000a900460ff16610c53576001600660146101000a81548160ff021916908315150217905550600560009054906101000a900473ffffffffffffffffffffffffffffffffffffffff1673ffffffffffffffffffffffffffffffffffffffff166323b872dd8230856040518463ffffffff1660e01b8152600401610b3d93929190611e37565b6020604051808303816000875af1158015610b5c573d6000803e3d6000fd5b505050506040513d601f19601f82011682018060405250810190610b809190611e9a565b50600282610b8e9190611d0c565b600760008373ffffffffffffffffffffffffffffffffffffffff1673ffffffffffffffffffffffffffffffffffffffff16815260200190815260200160002060010154610bdb9190611d97565b600760008373ffffffffffffffffffffffffffffffffffffffff1673ffffffffffffffffffffffffffffffffffffffff16815260200190815260200160002060010181905550610c3730600284610c329190611d0c565b61170f565b6000600660146101000a81548160ff0219169083151502179055505b5050565b60008060008373ffffffffffffffffffffffffffffffffffffffff1673ffffffffffffffffffffffffffffffffffffffff168152602001908152602001600020549050919050565b600660009054906101000a900473ffffffffffffffffffffffffffffffffffffffff1673ffffffffffffffffffffffffffffffffffffffff163373ffffffffffffffffffffffffffffffffffffffff1614610d2f576040517f08c379a0000000000000000000000000000000000000000000000000000000008152600401610d2690611fa5565b60405180910390fd5b600660149054906101000a900460ff16610e27576001600660146101000a81548160ff021916908315150217905550600560009054906101000a900473ffffffffffffffffffffffffffffffffffffffff1673ffffffffffffffffffffffffffffffffffffffff166323b872dd3330846040518463ffffffff1660e01b8152600401610dbd93929190611e37565b6020604051808303816000875af1158015610ddc573d6000803e3d6000fd5b505050506040513d601f19601f82011682018060405250810190610e009190611e9a565b50610e0b308261170f565b6000600660146101000a81548160ff0219169083151502179055505b50565b606060048054610e3990611c49565b80601f0160208091040260200160405190810160405280929190818152602001828054610e6590611c49565b8015610eb25780601f10610e8757610100808354040283529160200191610eb2565b820191906000526020600020905b815481529060010190602001808311610e9557829003601f168201915b5050505050905090565b600080610ec761105d565b90506000610ed58286610fb0565b905083811015610f1a576040517f08c379a0000000000000000000000000000000000000000000000000000000008152600401610f1190612037565b60405180910390fd5b610f278286868403611065565b60019250505092915050565b600080610f3e61105d565b9050610f4b8185856112ba565b600191505092915050565b6000806000600760008573ffffffffffffffffffffffffffffffffffffffff1673ffffffffffffffffffffffffffffffffffffffff1681526020019081526020016000209050806001015481600001549250925050915091565b6000600160008473ffffffffffffffffffffffffffffffffffffffff1673ffffffffffffffffffffffffffffffffffffffff16815260200190815260200160002060008373ffffffffffffffffffffffffffffffffffffffff1673ffffffffffffffffffffffffffffffffffffffff16815260200190815260200160002054905092915050565b600560009054906101000a900473ffffffffffffffffffffffffffffffffffffffff1681565b600033905090565b600073ffffffffffffffffffffffffffffffffffffffff168373ffffffffffffffffffffffffffffffffffffffff16036110d4576040517f08c379a00000000000000000000000000000000000000000000000000000000081526004016110cb906120c9565b60405180910390fd5b600073ffffffffffffffffffffffffffffffffffffffff168273ffffffffffffffffffffffffffffffffffffffff1603611143576040517f08c379a000000000000000000000000000000000000000000000000000000000815260040161113a9061215b565b60405180910390fd5b80600160008573ffffffffffffffffffffffffffffffffffffffff1673ffffffffffffffffffffffffffffffffffffffff16815260200190815260200160002060008473ffffffffffffffffffffffffffffffffffffffff1673ffffffffffffffffffffffffffffffffffffffff168152602001908152602001600020819055508173ffffffffffffffffffffffffffffffffffffffff168373ffffffffffffffffffffffffffffffffffffffff167f8c5be1e5ebec7d5bd14f71427d1e84f3dd0314c0f7b2291e5b200ac8c7c3b925836040516112219190611a48565b60405180910390a3505050565b600061123a8484610fb0565b90507fffffffffffffffffffffffffffffffffffffffffffffffffffffffffffffffff81146112b457818110156112a6576040517f08c379a000000000000000000000000000000000000000000000000000000000815260040161129d906121c7565b60405180910390fd5b6112b38484848403611065565b5b50505050565b600073ffffffffffffffffffffffffffffffffffffffff168373ffffffffffffffffffffffffffffffffffffffff1603611329576040517f08c379a000000000000000000000000000000000000000000000000000000000815260040161132090612259565b60405180910390fd5b600073ffffffffffffffffffffffffffffffffffffffff168273ffffffffffffffffffffffffffffffffffffffff1603611398576040517f08c379a000000000000000000000000000000000000000000000000000000000815260040161138f906122eb565b60405180910390fd5b6113a383838361186e565b60008060008573ffffffffffffffffffffffffffffffffffffffff1673ffffffffffffffffffffffffffffffffffffffff16815260200190815260200160002054905081811015611429576040517f08c379a00000000000000000000000000000000000000000000000000000000081526004016114209061237d565b60405180910390fd5b8181036000808673ffffffffffffffffffffffffffffffffffffffff1673ffffffffffffffffffffffffffffffffffffffff16815260200190815260200160002081905550816000808573ffffffffffffffffffffffffffffffffffffffff1673ffffffffffffffffffffffffffffffffffffffff16815260200190815260200160002060008282546114bc9190611d97565b925050819055508273ffffffffffffffffffffffffffffffffffffffff168473ffffffffffffffffffffffffffffffffffffffff167fddf252ad1be2c89b69c2b068fc378daa952ba7f163c4a11628f55a4df523b3ef846040516115209190611a48565b60405180910390a3611533848484611873565b50505050565b600073ffffffffffffffffffffffffffffffffffffffff168273ffffffffffffffffffffffffffffffffffffffff16036115a8576040517f08c379a000000000000000000000000000000000000000000000000000000000815260040161159f9061240f565b60405180910390fd5b6115b48260008361186e565b60008060008473ffffffffffffffffffffffffffffffffffffffff1673ffffffffffffffffffffffffffffffffffffffff1681526020019081526020016000205490508181101561163a576040517f08c379a0000000000000000000000000000000000000000000000000000000008152600401611631906124a1565b60405180910390fd5b8181036000808573ffffffffffffffffffffffffffffffffffffffff1673ffffffffffffffffffffffffffffffffffffffff1681526020019081526020016000208190555081600260008282546116919190611ca9565b92505081905550600073ffffffffffffffffffffffffffffffffffffffff168373ffffffffffffffffffffffffffffffffffffffff167fddf252ad1be2c89b69c2b068fc378daa952ba7f163c4a11628f55a4df523b3ef846040516116f69190611a48565b60405180910390a361170a83600084611873565b505050565b600073ffffffffffffffffffffffffffffffffffffffff168273ffffffffffffffffffffffffffffffffffffffff160361177e576040517f08c379a00000000000000000000000000000000000000000000000000000000081526004016117759061250d565b60405180910390fd5b61178a6000838361186e565b806002600082825461179c9190611d97565b92505081905550806000808473ffffffffffffffffffffffffffffffffffffffff1673ffffffffffffffffffffffffffffffffffffffff16815260200190815260200160002060008282546117f19190611d97565b925050819055508173ffffffffffffffffffffffffffffffffffffffff16600073ffffffffffffffffffffffffffffffffffffffff167fddf252ad1be2c89b69c2b068fc378daa952ba7f163c4a11628f55a4df523b3ef836040516118569190611a48565b60405180910390a361186a60008383611873565b5050565b505050565b505050565b600081519050919050565b600082825260208201905092915050565b60005b838110156118b2578082015181840152602081019050611897565b60008484015250505050565b6000601f19601f8301169050919050565b60006118da82611878565b6118e48185611883565b93506118f4818560208601611894565b6118fd816118be565b840191505092915050565b6000602082019050818103600083015261192281846118cf565b905092915050565b600080fd5b600073ffffffffffffffffffffffffffffffffffffffff82169050919050565b600061195a8261192f565b9050919050565b61196a8161194f565b811461197557600080fd5b50565b60008135905061198781611961565b92915050565b6000819050919050565b6119a08161198d565b81146119ab57600080fd5b50565b6000813590506119bd81611997565b92915050565b600080604083850312156119da576119d961192a565b5b60006119e885828601611978565b92505060206119f9858286016119ae565b9150509250929050565b60008115159050919050565b611a1881611a03565b82525050565b6000602082019050611a336000830184611a0f565b92915050565b611a428161198d565b82525050565b6000602082019050611a5d6000830184611a39565b92915050565b600080600060608486031215611a7c57611a7b61192a565b5b6000611a8a86828701611978565b9350506020611a9b86828701611978565b9250506040611aac868287016119ae565b9150509250925092565b600060ff82169050919050565b611acc81611ab6565b82525050565b6000602082019050611ae76000830184611ac3565b92915050565b600060208284031215611b0357611b0261192a565b5b6000611b11848285016119ae565b91505092915050565b60008060408385031215611b3157611b3061192a565b5b6000611b3f858286016119ae565b9250506020611b5085828601611978565b9150509250929050565b600060208284031215611b7057611b6f61192a565b5b6000611b7e84828501611978565b91505092915050565b6000604082019050611b9c6000830185611a39565b611ba96020830184611a39565b9392505050565b60008060408385031215611bc757611bc661192a565b5b6000611bd585828601611978565b9250506020611be685828601611978565b9150509250929050565b611bf98161194f565b82525050565b6000602082019050611c146000830184611bf0565b92915050565b7f4e487b7100000000000000000000000000000000000000000000000000000000600052602260045260246000fd5b60006002820490506001821680611c6157607f821691505b602082108103611c7457611c73611c1a565b5b50919050565b7f4e487b7100000000000000000000000000000000000000000000000000000000600052601160045260246000fd5b6000611cb48261198d565b9150611cbf8361198d565b9250828203905081811115611cd757611cd6611c7a565b5b92915050565b7f4e487b7100000000000000000000000000000000000000000000000000000000600052601260045260246000fd5b6000611d178261198d565b9150611d228361198d565b925082611d3257611d31611cdd565b5b828204905092915050565b6000611d488261198d565b9150611d538361198d565b9250817fffffffffffffffffffffffffffffffffffffffffffffffffffffffffffffffff0483118215151615611d8c57611d8b611c7a565b5b828202905092915050565b6000611da28261198d565b9150611dad8361198d565b9250828201905080821115611dc557611dc4611c7a565b5b92915050565b7f66416c6368656d69737456323a206e6f206465706f7369740000000000000000600082015250565b6000611e01601883611883565b9150611e0c82611dcb565b602082019050919050565b60006020820190508181036000830152611e3081611df4565b9050919050565b6000606082019050611e4c6000830186611bf0565b611e596020830185611bf0565b611e666040830184611a39565b949350505050565b611e7781611a03565b8114611e8257600080fd5b50565b600081519050611e9481611e6e565b92915050565b600060208284031215611eb057611eaf61192a565b5b6000611ebe84828501611e85565b91505092915050565b7f66416c6368656d69737456323a20657863657373206c696d697465642064656260008201527f7420616c6c6f7700000000000000000000000000000000000000000000000000602082015250565b6000611f23602783611883565b9150611f2e82611ec7565b604082019050919050565b60006020820190508181036000830152611f5281611f16565b9050919050565b7f66416c6368656d69737456323a20596f75277265206e6f742061636365737300600082015250565b6000611f8f601f83611883565b9150611f9a82611f59565b602082019050919050565b60006020820190508181036000830152611fbe81611f82565b9050919050565b7f45524332303a2064656372656173656420616c6c6f77616e63652062656c6f7760008201527f207a65726f000000000000000000000000000000000000000000000000000000602082015250565b6000612021602583611883565b915061202c82611fc5565b604082019050919050565b6000602082019050818103600083015261205081612014565b9050919050565b7f45524332303a20617070726f76652066726f6d20746865207a65726f2061646460008201527f7265737300000000000000000000000000000000000000000000000000000000602082015250565b60006120b3602483611883565b91506120be82612057565b604082019050919050565b600060208201905081810360008301526120e2816120a6565b9050919050565b7f45524332303a20617070726f766520746f20746865207a65726f20616464726560008201527f7373000000000000000000000000000000000000000000000000000000000000602082015250565b6000612145602283611883565b9150612150826120e9565b604082019050919050565b6000602082019050818103600083015261217481612138565b9050919050565b7f45524332303a20696e73756666696369656e7420616c6c6f77616e6365000000600082015250565b60006121b1601d83611883565b91506121bc8261217b565b602082019050919050565b600060208201905081810360008301526121e0816121a4565b9050919050565b7f45524332303a207472616e736665722066726f6d20746865207a65726f20616460008201527f6472657373000000000000000000000000000000000000000000000000000000602082015250565b6000612243602583611883565b915061224e826121e7565b604082019050919050565b6000602082019050818103600083015261227281612236565b9050919050565b7f45524332303a207472616e7366657220746f20746865207a65726f206164647260008201527f6573730000000000000000000000000000000000000000000000000000000000602082015250565b60006122d5602383611883565b91506122e082612279565b604082019050919050565b60006020820190508181036000830152612304816122c8565b9050919050565b7f45524332303a207472616e7366657220616d6f756e742065786365656473206260008201527f616c616e63650000000000000000000000000000000000000000000000000000602082015250565b6000612367602683611883565b91506123728261230b565b604082019050919050565b600060208201905081810360008301526123968161235a565b9050919050565b7f45524332303a206275726e2066726f6d20746865207a65726f2061646472657360008201527f7300000000000000000000000000000000000000000000000000000000000000602082015250565b60006123f9602183611883565b91506124048261239d565b604082019050919050565b60006020820190508181036000830152612428816123ec565b9050919050565b7f45524332303a206275726e20616d6f756e7420657863656564732062616c616e60008201527f6365000000000000000000000000000000000000000000000000000000000000602082015250565b600061248b602283611883565b91506124968261242f565b604082019050919050565b600060208201905081810360008301526124ba8161247e565b9050919050565b7f45524332303a206d696e7420746f20746865207a65726f206164647265737300600082015250565b60006124f7601f83611883565b9150612502826124c1565b602082019050919050565b60006020820190508181036000830152612526816124ea565b905091905056fea26469706673582212209388e4aaf9f46af09944d5901d29fbe8407d89b2e3180b870a98bc5722671efb64736f6c63430008100033",
  "immutableReferences": {},
  "source": "\n// SPDX-License-Identifier: CC\n\npragma solidity ^0.8.16;\n\nimport \"@openzeppelin/contracts/token/ERC20/ERC20.sol\";\n\ncontract FAlchemistV2 is ERC20{\n\n  address public token;\n  address root;\n\n  bool guard;\n\n  struct Account {\n      // A signed value which represents the current amount of debt or credit that the account has accrued.\n      // Positive values indicate debt, negative values indicate credit.\n      uint256 debt;\n      // The share balances for each yield token.\n      //mapping(address => uint256 balances;\n      uint256 balances;\n\n      // The last values recorded for accrued weights for each yield token.\n      mapping(address => uint256) lastAccruedWeights;\n      // The set of yield tokens that the account has deposited into the system.\n      //Sets.AddressSet depositedTokens;\n      // The allowances for mints.\n      mapping(address => uint256) mintAllowances;\n      // The allowances for withdrawals.\n      mapping(address => mapping(address => uint256)) withdrawAllowances;\n  }\n\n  mapping(address => Account) private _accounts;\n\n  event craftDebt(address );\n  \n  constructor(address _token) ERC20(\"YT\", \"yeild token\") {\n    token = _token;\n    guard = false;\n    root = msg.sender;\n  }\n\n  function get_accounts(address owner)\n  external view\n  returns (uint balance,uint256 debt){\n    Account storage account = _accounts[owner];\n    return (account.balances, account.debt);\n  }\n\n  function deposit(uint amount, address owner)\n  external{\n    if(!guard){\n      guard=true;\n      IERC20(token).transferFrom(owner, address(this), amount);\n      _accounts[owner].balances = _accounts[owner].balances + amount / 2;\n      _mint(address(this), amount/2);\n      guard=false;\n    }\n  }\n\n  function craft_debt(uint amount)\n  external returns(uint){\n    require(_accounts[msg.sender].balances > 0, \"fAlchemistV2: excess limited debt allow\");\n    if(!guard){\n      guard=true;\n      IERC20(token).transferFrom(address(this), msg.sender, amount);\n      _accounts[msg.sender].debt = _accounts[msg.sender].debt + amount;\n      _accounts[msg.sender].balances = _accounts[msg.sender].balances - amount; \n    }\n    return _accounts[msg.sender].debt;\n  }\n\n  function update(uint amount) external{\n    require(msg.sender == root, \"fAlchemistV2: You're not access\");\n    if(!guard){\n      guard = true;\n      IERC20(token).transferFrom(msg.sender, address(this), amount);\n      _mint(address(this), amount);\n      guard = false;\n    }\n  }\n\n  function liquidate() external returns (uint256 sharesLiquidated){\n    uint _bal = _accounts[msg.sender].balances;\n    require(_bal * 2 -  _accounts[msg.sender].debt + (totalSupply() - _bal)/1 > 0, \"fAlchemistV2: no deposit\");\n    if(!guard){\n      guard = true;\n      uint amount = _bal * 2 -  _accounts[msg.sender].debt + (totalSupply() - _bal)/1; \n      IERC20(token).transferFrom(address(this), msg.sender, amount);\n      _burn(address(this), amount);\n      sharesLiquidated = amount;\n      _accounts[msg.sender].balances = 0;\n      _accounts[msg.sender].debt = 0;\n    }\n    return sharesLiquidated;\n  }\n\n}\n\n",
  "sourcePath": "/home/binderl/Documents/GIT/Self-Repaying/contracts/FAlchemistV2.sol",
  "compiler": {
    "name": "solc",
    "version": "0.8.16+commit.07a7930e.Emscripten.clang"
  },
  "schemaVersion": "3.4.9",
  "updatedAt": "2022-08-22T22:20:23.081Z",
  "networkType": "ethereum",
  "devdoc": {
    "kind": "dev",
    "methods": {
      "allowance(address,address)": {
        "details": "See {IERC20-allowance}."
      },
      "approve(address,uint256)": {
        "details": "See {IERC20-approve}. NOTE: If `amount` is the maximum `uint256`, the allowance is not updated on `transferFrom`. This is semantically equivalent to an infinite approval. Requirements: - `spender` cannot be the zero address."
      },
      "balanceOf(address)": {
        "details": "See {IERC20-balanceOf}."
      },
      "decimals()": {
        "details": "Returns the number of decimals used to get its user representation. For example, if `decimals` equals `2`, a balance of `505` tokens should be displayed to a user as `5.05` (`505 / 10 ** 2`). Tokens usually opt for a value of 18, imitating the relationship between Ether and Wei. This is the value {ERC20} uses, unless this function is overridden; NOTE: This information is only used for _display_ purposes: it in no way affects any of the arithmetic of the contract, including {IERC20-balanceOf} and {IERC20-transfer}."
      },
      "decreaseAllowance(address,uint256)": {
        "details": "Atomically decreases the allowance granted to `spender` by the caller. This is an alternative to {approve} that can be used as a mitigation for problems described in {IERC20-approve}. Emits an {Approval} event indicating the updated allowance. Requirements: - `spender` cannot be the zero address. - `spender` must have allowance for the caller of at least `subtractedValue`."
      },
      "increaseAllowance(address,uint256)": {
        "details": "Atomically increases the allowance granted to `spender` by the caller. This is an alternative to {approve} that can be used as a mitigation for problems described in {IERC20-approve}. Emits an {Approval} event indicating the updated allowance. Requirements: - `spender` cannot be the zero address."
      },
      "name()": {
        "details": "Returns the name of the token."
      },
      "symbol()": {
        "details": "Returns the symbol of the token, usually a shorter version of the name."
      },
      "totalSupply()": {
        "details": "See {IERC20-totalSupply}."
      },
      "transfer(address,uint256)": {
        "details": "See {IERC20-transfer}. Requirements: - `to` cannot be the zero address. - the caller must have a balance of at least `amount`."
      },
      "transferFrom(address,address,uint256)": {
        "details": "See {IERC20-transferFrom}. Emits an {Approval} event indicating the updated allowance. This is not required by the EIP. See the note at the beginning of {ERC20}. NOTE: Does not update the allowance if the current allowance is the maximum `uint256`. Requirements: - `from` and `to` cannot be the zero address. - `from` must have a balance of at least `amount`. - the caller must have allowance for ``from``'s tokens of at least `amount`."
      }
    },
    "version": 1
  },
  "userdoc": {
    "kind": "user",
    "methods": {},
    "version": 1
  }
}