{
  "contractName": "Rent",
  "abi": [
    {
      "inputs": [
        {
          "internalType": "address",
          "name": "_vault",
          "type": "address"
        },
        {
          "internalType": "address",
          "name": "_token",
          "type": "address"
        },
        {
          "internalType": "address",
          "name": "_renter",
          "type": "address"
        },
        {
          "internalType": "address",
          "name": "_occupier",
          "type": "address"
        },
        {
          "internalType": "uint256",
          "name": "_rent",
          "type": "uint256"
        }
      ],
      "stateMutability": "nonpayable",
      "type": "constructor"
    },
    {
      "anonymous": false,
      "inputs": [
        {
          "indexed": false,
          "internalType": "uint256",
          "name": "rent",
          "type": "uint256"
        }
      ],
      "name": "PaiementOfRent",
      "type": "event"
    },
    {
      "anonymous": false,
      "inputs": [
        {
          "indexed": false,
          "internalType": "enum Rent.WorkflowStatus",
          "name": "previousStatus",
          "type": "uint8"
        },
        {
          "indexed": false,
          "internalType": "enum Rent.WorkflowStatus",
          "name": "newStatus",
          "type": "uint8"
        }
      ],
      "name": "WorkflowStatusChange",
      "type": "event"
    },
    {
      "inputs": [],
      "name": "threshold",
      "outputs": [
        {
          "internalType": "uint256",
          "name": "",
          "type": "uint256"
        }
      ],
      "stateMutability": "view",
      "type": "function"
    },
    {
      "inputs": [],
      "name": "workflowStatus",
      "outputs": [
        {
          "internalType": "enum Rent.WorkflowStatus",
          "name": "",
          "type": "uint8"
        }
      ],
      "stateMutability": "view",
      "type": "function"
    },
    {
      "inputs": [
        {
          "internalType": "uint256",
          "name": "amount",
          "type": "uint256"
        }
      ],
      "name": "payTheRent",
      "outputs": [],
      "stateMutability": "nonpayable",
      "type": "function"
    },
    {
      "inputs": [],
      "name": "claim_rent",
      "outputs": [],
      "stateMutability": "nonpayable",
      "type": "function"
    },
    {
      "inputs": [],
      "name": "getNextPaiement",
      "outputs": [
        {
          "internalType": "uint256",
          "name": "",
          "type": "uint256"
        }
      ],
      "stateMutability": "nonpayable",
      "type": "function"
    },
    {
      "inputs": [],
      "name": "terminate",
      "outputs": [
        {
          "internalType": "uint256",
          "name": "",
          "type": "uint256"
        }
      ],
      "stateMutability": "nonpayable",
      "type": "function"
    }
  ],
  "bytecode": "0x60806040523480156200001157600080fd5b50604051620012863803806200128683398181016040528101906200003791906200023b565b846000806101000a81548173ffffffffffffffffffffffffffffffffffffffff021916908373ffffffffffffffffffffffffffffffffffffffff16021790555083600160006101000a81548173ffffffffffffffffffffffffffffffffffffffff021916908373ffffffffffffffffffffffffffffffffffffffff16021790555082600260006101000a81548173ffffffffffffffffffffffffffffffffffffffff021916908373ffffffffffffffffffffffffffffffffffffffff16021790555081600360006101000a81548173ffffffffffffffffffffffffffffffffffffffff021916908373ffffffffffffffffffffffffffffffffffffffff1602179055508060048190555060026005819055507f2788df643b9a6146abc779155d80cc8efe4e5a22ed5918192b48cbb7077861806006819055506000600760006101000a81548160ff0219169083151502179055505050505050620002c3565b600080fd5b600073ffffffffffffffffffffffffffffffffffffffff82169050919050565b6000620001c8826200019b565b9050919050565b620001da81620001bb565b8114620001e657600080fd5b50565b600081519050620001fa81620001cf565b92915050565b6000819050919050565b620002158162000200565b81146200022157600080fd5b50565b60008151905062000235816200020a565b92915050565b600080600080600060a086880312156200025a576200025962000196565b5b60006200026a88828901620001e9565b95505060206200027d88828901620001e9565b94505060406200029088828901620001e9565b9350506060620002a388828901620001e9565b9250506080620002b68882890162000224565b9150509295509295909350565b610fb380620002d36000396000f3fe608060405234801561001057600080fd5b50600436106100625760003560e01c80630c08bf88146100675780630d94f3581461008557806342cde4e8146100a35780635ebfa86d146100c1578063a1edffa2146100cb578063b155ad07146100e9575b600080fd5b61006f610105565b60405161007c9190610a30565b60405180910390f35b61008d61029a565b60405161009a9190610a30565b60405180910390f35b6100ab61032e565b6040516100b89190610a30565b60405180910390f35b6100c9610334565b005b6100d36105b6565b6040516100e09190610ac2565b60405180910390f35b61010360048036038101906100fe9190610b0e565b6105c9565b005b6000600360009054906101000a900473ffffffffffffffffffffffffffffffffffffffff1673ffffffffffffffffffffffffffffffffffffffff163373ffffffffffffffffffffffffffffffffffffffff1614610197576040517f08c379a000000000000000000000000000000000000000000000000000000000815260040161018e90610b98565b60405180910390fd5b60008060009054906101000a900473ffffffffffffffffffffffffffffffffffffffff1673ffffffffffffffffffffffffffffffffffffffff166328a070256040518163ffffffff1660e01b81526004016020604051808303816000875af1158015610207573d6000803e3d6000fd5b505050506040513d601f19601f8201168201806040525081019061022b9190610bcd565b90506002600760016101000a81548160ff0219169083600281111561025357610252610a4b565b5b02179055507f0a97a4ee45751e2abf3e4fc8946939630b11b371ea8ae39ccdc3056e98f5cc3f6000600260405161028b929190610bfa565b60405180910390a18091505090565b60006002808111156102af576102ae610a4b565b5b600760019054906101000a900460ff1660028111156102d1576102d0610a4b565b5b14610311576040517f08c379a000000000000000000000000000000000000000000000000000000000815260040161030890610c6f565b60405180910390fd5b61031961085b565b6005546004546103299190610cbe565b905090565b60055481565b60028081111561034757610346610a4b565b5b600760019054906101000a900460ff16600281111561036957610368610a4b565b5b146103a9576040517f08c379a00000000000000000000000000000000000000000000000000000000081526004016103a090610c6f565b60405180910390fd5b600260009054906101000a900473ffffffffffffffffffffffffffffffffffffffff1673ffffffffffffffffffffffffffffffffffffffff163373ffffffffffffffffffffffffffffffffffffffff1614610439576040517f08c379a000000000000000000000000000000000000000000000000000000000815260040161043090610b98565b60405180910390fd5b6001600281111561044d5761044c610a4b565b5b600760019054906101000a900460ff16600281111561046f5761046e610a4b565b5b146104af576040517f08c379a00000000000000000000000000000000000000000000000000000000081526004016104a690610d64565b60405180910390fd5b60008054906101000a900473ffffffffffffffffffffffffffffffffffffffff1673ffffffffffffffffffffffffffffffffffffffff16634256612b6004546040518263ffffffff1660e01b815260040161050a9190610a30565b6020604051808303816000875af1158015610529573d6000803e3d6000fd5b505050506040513d601f19601f8201168201806040525081019061054d9190610bcd565b506000600760016101000a81548160ff0219169083600281111561057457610573610a4b565b5b02179055507f0a97a4ee45751e2abf3e4fc8946939630b11b371ea8ae39ccdc3056e98f5cc3f600160006040516105ac929190610bfa565b60405180910390a1565b600760019054906101000a900460ff1681565b6002808111156105dc576105db610a4b565b5b600760019054906101000a900460ff1660028111156105fe576105fd610a4b565b5b1461063e576040517f08c379a000000000000000000000000000000000000000000000000000000000815260040161063590610c6f565b60405180910390fd5b600360009054906101000a900473ffffffffffffffffffffffffffffffffffffffff1673ffffffffffffffffffffffffffffffffffffffff163373ffffffffffffffffffffffffffffffffffffffff16146106ce576040517f08c379a00000000000000000000000000000000000000000000000000000000081526004016106c590610b98565b60405180910390fd5b6106d661085b565b60006004546005546106e89190610cbe565b90508082101561072d576040517f08c379a000000000000000000000000000000000000000000000000000000000815260040161072490610dd0565b60405180910390fd5b60008054906101000a900473ffffffffffffffffffffffffffffffffffffffff1673ffffffffffffffffffffffffffffffffffffffff16636e553f6582336040518363ffffffff1660e01b8152600401610788929190610e31565b600060405180830381600087803b1580156107a257600080fd5b505af11580156107b6573d6000803e3d6000fd5b505050506001600760016101000a81548160ff021916908360028111156107e0576107df610a4b565b5b02179055507f0a97a4ee45751e2abf3e4fc8946939630b11b371ea8ae39ccdc3056e98f5cc3f60006001604051610818929190610bfa565b60405180910390a17fd4b25165d83f169bf027ac2d1eddfa997d8a20c17746d885f70a837bd99ef0bd8160405161084f9190610a30565b60405180910390a15050565b60008060008060009054906101000a900473ffffffffffffffffffffffffffffffffffffffff1673ffffffffffffffffffffffffffffffffffffffff166318160ddd6040518163ffffffff1660e01b8152600401602060405180830381865afa1580156108cc573d6000803e3d6000fd5b505050506040513d601f19601f820116820180604052508101906108f09190610bcd565b905060008054906101000a900473ffffffffffffffffffffffffffffffffffffffff1673ffffffffffffffffffffffffffffffffffffffff1663dcb83526600360009054906101000a900473ffffffffffffffffffffffffffffffffffffffff166040518263ffffffff1660e01b815260040161096d9190610e5a565b6040805180830381865afa158015610989573d6000803e3d6000fd5b505050506040513d601f19601f820116820180604052508101906109ad9190610e75565b80935081945050506000831415806109c6575060008214155b15610a12576000600454600185846109de9190610eb5565b6109e89190610f18565b856109f39190610f49565b6109fd9190610f18565b905060018111610a105760006005819055505b505b505050565b6000819050919050565b610a2a81610a17565b82525050565b6000602082019050610a456000830184610a21565b92915050565b7f4e487b7100000000000000000000000000000000000000000000000000000000600052602160045260246000fd5b60038110610a8b57610a8a610a4b565b5b50565b6000819050610a9c82610a7a565b919050565b6000610aac82610a8e565b9050919050565b610abc81610aa1565b82525050565b6000602082019050610ad76000830184610ab3565b92915050565b600080fd5b610aeb81610a17565b8114610af657600080fd5b50565b600081359050610b0881610ae2565b92915050565b600060208284031215610b2457610b23610add565b5b6000610b3284828501610af9565b91505092915050565b600082825260208201905092915050565b7f52656e743a20616363657373206e6f74206772616e7465640000000000000000600082015250565b6000610b82601883610b3b565b9150610b8d82610b4c565b602082019050919050565b60006020820190508181036000830152610bb181610b75565b9050919050565b600081519050610bc781610ae2565b92915050565b600060208284031215610be357610be2610add565b5b6000610bf184828501610bb8565b91505092915050565b6000604082019050610c0f6000830185610ab3565b610c1c6020830184610ab3565b9392505050565b7f52656e743a20636f6e747261637420686173206265656e2063616e63656c0000600082015250565b6000610c59601e83610b3b565b9150610c6482610c23565b602082019050919050565b60006020820190508181036000830152610c8881610c4c565b9050919050565b7f4e487b7100000000000000000000000000000000000000000000000000000000600052601160045260246000fd5b6000610cc982610a17565b9150610cd483610a17565b9250817fffffffffffffffffffffffffffffffffffffffffffffffffffffffffffffffff0483118215151615610d0d57610d0c610c8f565b5b828202905092915050565b7f52656e743a206e6f20636c61696d000000000000000000000000000000000000600082015250565b6000610d4e600e83610b3b565b9150610d5982610d18565b602082019050919050565b60006020820190508181036000830152610d7d81610d41565b9050919050565b7f52656e743a207468652072656e74206973206e6f7420636f7272656374000000600082015250565b6000610dba601d83610b3b565b9150610dc582610d84565b602082019050919050565b60006020820190508181036000830152610de981610dad565b9050919050565b600073ffffffffffffffffffffffffffffffffffffffff82169050919050565b6000610e1b82610df0565b9050919050565b610e2b81610e10565b82525050565b6000604082019050610e466000830185610a21565b610e536020830184610e22565b9392505050565b6000602082019050610e6f6000830184610e22565b92915050565b60008060408385031215610e8c57610e8b610add565b5b6000610e9a85828601610bb8565b9250506020610eab85828601610bb8565b9150509250929050565b6000610ec082610a17565b9150610ecb83610a17565b9250828203905081811115610ee357610ee2610c8f565b5b92915050565b7f4e487b7100000000000000000000000000000000000000000000000000000000600052601260045260246000fd5b6000610f2382610a17565b9150610f2e83610a17565b925082610f3e57610f3d610ee9565b5b828204905092915050565b6000610f5482610a17565b9150610f5f83610a17565b9250828201905080821115610f7757610f76610c8f565b5b9291505056fea2646970667358221220430170f4b5ca0575a96a84fd549a23138cf3121d56e831c44d9f2ee0efb5dd6464736f6c63430008100033",
  "immutableReferences": {},
  "source": "\n// SPDX-License-Identifier: CC\n\npragma solidity ^0.8.16;\nimport \"./IfAlchemistV2.sol\";\nimport \"@openzeppelin/contracts/token/ERC20/IERC20.sol\";\n\ncontract Rent{\n\n  address vault;\n  address token;\n  address renter;\n  address occupier;\n\n  uint rent;\n  uint public threshold;\n\n  bytes32 irlRental_hash;\n\n  bool guard;\n\n  enum WorkflowStatus {\n    Rental,\n    PaiementProcessed,\n    Liquidated\n  }\n\n  WorkflowStatus public workflowStatus;\n\n  event PaiementOfRent(uint rent); \n  event WorkflowStatusChange(WorkflowStatus previousStatus, WorkflowStatus newStatus);\n\n  modifier onlyIfNotLiquidated() {\n    require(workflowStatus == WorkflowStatus.Liquidated, \"Rent: contract has been cancel\");\n    _;                   \n  }\n\n  constructor(address _vault, address _token ,address _renter, address _occupier, uint _rent){\n    vault = _vault;\n    token = _token;\n    renter = _renter;\n    occupier = _occupier;\n    rent = _rent;\n    threshold = 2;\n    irlRental_hash = keccak256(\"terms of rental contract\");\n    guard = false;\n  }\n\n  function payTheRent(uint amount) public onlyIfNotLiquidated{\n    require(msg.sender == occupier, \"Rent: access not granted\");\n    _update_threshold();\n    uint _effective = threshold * rent;\n    require(amount >= _effective, \"Rent: the rent is not correct\");\n    IfAlchemistV2(vault).deposit(_effective, msg.sender);          \n    workflowStatus = WorkflowStatus.PaiementProcessed;\n    emit WorkflowStatusChange(WorkflowStatus.Rental, WorkflowStatus.PaiementProcessed);\n    emit PaiementOfRent(_effective);\n  }\n\n  function claim_rent() external onlyIfNotLiquidated{\n    require(msg.sender == renter, \"Rent: access not granted\");\n    require(workflowStatus == WorkflowStatus.PaiementProcessed, \"Rent: no claim\");\n    IfAlchemistV2(vault).craft_debt(rent);    \n    workflowStatus = WorkflowStatus.Rental;\n    emit WorkflowStatusChange(WorkflowStatus.PaiementProcessed, WorkflowStatus.Rental);\n  }\n\n  function _update_threshold() internal {\n    uint balance;\n    uint debt;\n    uint ts = IfAlchemistV2(vault).totalSupply();\n    (balance, debt) = IfAlchemistV2(vault).get_accounts(occupier);\n    if(balance!=0 || debt !=0){\n      uint _threshold = (balance + (ts - balance) / 1) / rent;\n      if(_threshold <= 1){\n        threshold = 0;  \n      }   \n    }\n  }\n\n  function getNextPaiement() public onlyIfNotLiquidated returns(uint){\n    _update_threshold();\n    return rent * threshold;\n  }\n\n  function terminate() external returns(uint){\n    require(msg.sender == occupier, \"Rent: access not granted\");\n    uint amount = IfAlchemistV2(vault).liquidate();\n    workflowStatus = WorkflowStatus.Liquidated;\n    emit WorkflowStatusChange(WorkflowStatus.Rental, WorkflowStatus.Liquidated);\n    return amount;\n  }\n}\n\n",
  "sourcePath": "/home/binderl/Documents/GIT/Self-Repaying/contracts/Rent.sol",
  "compiler": {
    "name": "solc",
    "version": "0.8.16+commit.07a7930e.Emscripten.clang"
  },
  "schemaVersion": "3.4.9",
  "updatedAt": "2022-08-22T23:12:37.336Z",
  "devdoc": {
    "kind": "dev",
    "methods": {},
    "version": 1
  },
  "userdoc": {
    "kind": "user",
    "methods": {},
    "version": 1
  }
}